:020000040800F2
:100000005008002001010008670D0008C90C000815
:10001000650D0008C3010008D513000800000000AA
:100020000000000000000000000000005711000860
:10003000C501000800000000551100085911000812
:100040001B0100081B0100081B0100081B01000820
:100050001B0100081B0100081B0100081B01000810
:100060001B0100081B0100081B0100081B01000800
:100070001B0100081B0100081B0100081B010008F0
:100080001B0100081B0100081B0100081B010008E0
:100090001B0100081B0100081B0100081B010008D0
:1000A0001B0100081B0100081B0100081B010008C0
:1000B0001B0100081B0100081B0100081B010008B0
:1000C0001B0100081B0100081B0100081B010008A0
:1000D0001B010008C91300081B0100081B010008D0
:1000E0001B0100081B0100081B010008DFF80CD0F1
:1000F00000F02AF8004800472914000850080020A2
:100100000648804706480047FEE7FEE7FEE7FEE7B1
:10011000FEE7FEE7FEE7FEE7FEE7FEE7A1110008C7
:10012000ED000008D2B201E000F8012B491EFBD21D
:1001300070470022F6E710B513460A4604461946F2
:10014000FFF7F0FF204610BD064C074D06E0E068C3
:1001500040F0010394E8070098471034AC42F6D30E
:10016000FFF7C8FFD81B0008F81B000870B58C18F3
:1001700010F8015B15F0070301D110F8013B2A11BB
:1001800006D110F8012B03E010F8016B01F8016BA8
:100190005B1EF9D12B0705D40023521E0DD401F8A4
:1001A000013BFAE710F8013BCB1A921C03E013F86D
:1001B000015B01F8015B521EF9D5A142D8D30020A2
:1001C00070BDFEE77047704710B590F8211000240D
:1001D000022903D00421816301243DE001680A68FB
:1001E00022F00E020A6001680A6822F001020A6029
:1001F0001A4A0168914201D1012121E0174A1432C3
:10020000914201D110211BE0144A2832914201D1C0
:10021000891515E0114A3C32914201D189140FE051
:100220000E4A5032914202D14FF4803108E00B4A1D
:100230006432914202D14FF4801101E04FF080719D
:10024000064A083A5160012180F82110002180F807
:100250002010416B01B18847204610BD08000240C4
:1002600070B5044600F004F90546601C02D004484D
:100270000078044400F0FCF8401BA042FAD370BDA3
:10028000000400202DE9F84FDFF8B891002409F1AF
:10029000040A0AF1040B23460F270BF1040EC9E0F0
:1002A0000125A5402A40AA427DD1674ED1F804C05D
:1002B000ACEB0608B44532D014DCBCF1030F3AD0E5
:1002C00009DCBCF1000F2AD0BCF1010F1CD0BCF13D
:1002D000020F31D11DE0BCF1110F17D0BCF1120F8C
:1002E0002AD119E0B8F5881F19D006DCB8F5803F8F
:1002F00015D0B8F5801F1FD111E0B8F5001F0ED042
:10030000B8F5041F18D10AE0CB6815E0CB681B1DB7
:1003100012E0CB6808330FE0CB680C330CE08B683D
:100320002BB1012B4FF0080303D0456104E00423F7
:1003300002E0056100E00023FF2A01D8064601E043
:1003400000F104064FEA840501D9A5F12005D6F88D
:10035000008007FA05FC28EA0C0803FA05F548EACC
:100360000508C6F800804D68ED0062D5374DAE69CE
:1003700046F00106AE61AD6924F0030605F0010503
:100380000095334D06EB050CDCF80850A607360F38
:1003900007FA06F825EA0805DFF8B880404503D1DA
:1003A0004FF0000817E044E0DFF8AC80404502D190
:1003B0004FF001080FE0DFF8A480404502D14FF074
:1003C000020808E0DFF89880404502D14FF00308AA
:1003D00001E04FF0040808FA06F848EA0508CCF8EE
:1003E00008804D68D9F80060ED034D4601D51643ED
:1003F00000E096432E604D68DAF80060AD03554684
:1004000001D5164300E096432E604D68DBF800608E
:10041000ED025D4601D5164300E096432E604D681F
:10042000DEF80060AD02754601D5164300E0964344
:100430002E60641C0D682A46E5407FF431AFBDE8AC
:10044000F88F00000004014000001110001002406D
:100450000000014000080140000C01400010014074
:10046000001401400AB1016170470904FBE7000074
:10047000014880687047000000040020024881683D
:10048000027811448160704700040020074810B5CD
:10049000016841F010010160032000F075F80020B0
:1004A00000F006F800F024F8002010BD0020024003
:1004B00070B50D4D04464FF47A712878B1FBF0F019
:1004C0000A490968B1FBF0F000F0ECFA48B9102CC9
:1004D00007D200222146501E00F036F800206C6042
:1004E00070BD012070BD0000000400200C0400203D
:1004F0000C4808B5816941F001018161816901F011
:1005000001010091C16941F08051C161C06900F0F1
:10051000805000900448416821F0E06141F0007192
:10052000416008BD0010024000000140002809DBC6
:1005300000F01F02012191404009800000F1E020FD
:10054000C0F8001170470000F0B40E4B1B680C4659
:10055000C3F30223C3F10705042D00D90425191D97
:10056000072901D2002300E0DB1E012606FA05F16F
:10057000491E214099409E40761E16403143F0BCF2
:1005800000F029BF0CED00E0064900F00702086802
:100590004FF6FF03184040EA0220034A1043086068
:1005A000704700000CED00E00000FA052DE9F0476F
:1005B0000F46050061D0434E306800F00700B84296
:1005C00009D2306820F0070038433060306800F00E
:1005D0000700B84251D128683B4C810712D540072B
:1005E00003D5606840F4E06060602878000703D5B8
:1005F000606840F4605060606068A96820F0F000B6
:10060000084360602878C00728D06868012810D0A7
:100610002168022810D0890700292EDA616821F0AC
:10062000030101436160FFF723FF804641F28839EF
:100630000DE021688903EFE78901EDE7FFF718FF77
:10064000A0EB0801494502D90320BDE8F0876068A6
:10065000696800F00C00B0EB810FEFD1306800F05A
:100660000700B8420BD9306820F0070038433060EB
:10067000306800F00700B84201D00120E5E7287893
:10068000400705D56068E96820F4E06008436060D1
:100690002878000706D56068296920F4605040EA90
:1006A000C100606000F038F86168084AC1F30311C6
:1006B000515CC8400649086006480068FFF7F8FE2C
:1006C0000020C2E70020024000100240BE1B0008CC
:1006D0000C0400200404002004480549006849680F
:1006E000044AC1F30221515CC84070470C04002049
:1006F00000100240CE1B0008044805490068496804
:10070000044AC1F3C221515CC84070470C04002068
:1007100000100240CE1B000812A185B00FC98DE861
:100720000F0014A0144A006804905168134801F0A7
:100730000C03042B10D0082B0ED1C1F38343C90343
:100740001DF803000AD5516804AAC1F34041515C69
:100750000A4A5043B0FBF1F005B0704708494843DE
:10076000FAE7000002030405060708090A0B0C0D4E
:100770000E0F1010010200000010024000127A005B
:1007800000093D002DE9F84F040070D02078C04DDD
:10079000C00749D06868C0F38100012807D06868A5
:1007A000C0F38100022809D16868C00306D5286813
:1007B000800339D560680028E7D035E06068B0F57F
:1007C000803F0BD010B1B0F5A02F11D0286820F4D5
:1007D00080302860286820F4802002E0286840F4F7
:1007E00080302860606890B1FFF742FE06460AE05C
:1007F000286840F480202860F0E700BFFFF738FE4B
:10080000801B642873D828688003F7D50CE0FFF7B5
:100810002FFE064605E000BFFFF72AFE801B642876
:10082000F0D828688003F7D420789A4E80074FF0DC
:1008300001094FF0000839D5686810F00C0F07D097
:100840006868C0F38100022809D16868C00306D433
:100850002868800714D52069012808D110E0206994
:10086000B0B1C6F80090FFF703FE074605E00AE1C5
:10087000FFF7FEFDC01B0228C4D828688007F7D503
:100880002868616920F0F80040EAC10028600DE0A6
:10089000C6F80080FFF7ECFD074604E0FFF7E8FD2F
:1008A000C01B022823D828688007F7D420780007C7
:1008B0002CD57948A169D9B1C0F80090FFF7D8FDCF
:1008C000074604E0FFF7D4FDC01B02280FD8686A72
:1008D0008007F7D571484FF4FA510068B0FBF1F08A
:1008E000009000BF0098411E0091FAD20EE080E017
:1008F000C0F80080FFF7BCFD074604E0FFF7B8FD35
:10090000C01B022875D8686A8007F7D42078400792
:1009100060D5E8690027C00008D4E86940F080503D
:10092000E861E869012700F0805000905C480168A8
:10093000C90513D40168834641F480710160FFF753
:1009400097FD824606E000BFFFF792FDA0EB0A008C
:1009500064284ED8DBF80000C005F5D5E068012812
:100960000AD008B1052813D0286A20F001002862B7
:10097000286A20F0040002E0286A40F001002862A2
:10098000E06841F2883B98B1FFF772FD82460BE0C8
:10099000286A40F004002862EEE700BFFFF768FD18
:1009A000A0EB0A0159455AD8286A8007F6D50CE011
:1009B000FFF75EFD824605E0FFF75AFDA0EB0A0156
:1009C00059454CD8286A8007F6D41FB1E86920F051
:1009D0008050E861E06988B36968C1F38101022948
:1009E00044D00228C6F8608004D0FFF741FD0446D9
:1009F00038E034E0FFF73CFD074604E0FFF738FD40
:100A0000C01B02282BD828688001F7D4206AB0F5D3
:100A1000803F05D16868A16820F400300843686011
:100A2000D4E908010843696821F474110843686037
:100A3000C6F86090FFF71CFD044606E025E000BF05
:100A4000FFF716FD001B022809D828688001F7D59A
:100A50001BE000BFFFF70CFD001B022802D903209A
:100A6000BDE8F88F28688001F4D40EE00128F7D0A3
:100A70006868226A00F48031914204D1616A00F40E
:100A80007010884201D00120EAE70020E8E700006A
:100A90000010024000004242800442420C04002048
:100AA0000070004010B5401EB0F1807F01D30120DE
:100AB00010BD4FF0E02460610F21601700F08BFC47
:100AC0000020A06107202061002010BD70470000B9
:100AD00070B5026804461068D168536910F00F0FB2
:100AE00050D003F0010501F4907635435DD0C20784
:100AF00005D0CA0503D5E26B42F00102E26342076A
:100B000005D5DA0703D0E26B42F00202E263820706
:100B100005D5DA0703D0E26B42F00402E263020774
:100B200005D5DA0703D0E26B42F00802E263E26B1C
:100B3000002A33D0800604D5880602D5204600F06E
:100B400069FB20684069E16BC0F38010090700D49D
:100B500028B3204600F050FB2068416949061AD5A9
:100B6000416921F040014161606BA0B11B494163C3
:100B7000606BFFF729FB002810D0606B416BBDE86C
:100B800070400847830610D58B060ED52046BDE879
:100B9000704000F03FBB2046FFF798FF70BD204635
:100BA000FFF794FF0020E06370BD030606D50B0637
:100BB00004D52046BDE8704000F0D4BB4006F3D514
:100BC0004806F1D5D168204621F04001D1602021AE
:100BD00084F8391000F077F870BD0000E9110008C2
:100BE00070B5040004D094F83900002510B106E077
:100BF000012070BD84F83850204600F023F82420EE
:100C000084F839002068C16821F40051C160204691
:100C100000F04CFB2068016921F4904101612068DB
:100C2000416921F02A0141612068C16841F4005105
:100C3000C160E563202084F8390084F83A00002080
:100C400070BD000030B585B000240094019402947A
:100C500003940068184988422CD11848816941F4EE
:100C600080418161816901F480410491816941F091
:100C7000040181618069124D00F0040004904FF47A
:100C800000700090022001900320039069462846DE
:100C9000FFF7F8FA2815CDE90004694628460294C2
:100CA000FFF7F0FA002211462520FFF74DFC252022
:100CB000FFF73CFC05B030BD003801400010024099
:100CC0000008014070477047FEE7000070B586B02D
:100CD000002414480094019402940394816941F023
:100CE00008018161816901F008010491816941F085
:100CF0000401816180690C4E00F004004FF47045DE
:100D00000490002229463046FFF7ACFB01200095F5
:100D1000CDE901040220039069463046FFF7B2FA9C
:100D200006B070BD00100240000C01400C4810B528
:100D30000A4901604FF4E1314160002181600C22D9
:100D4000C160C0E904128161C161FFF749FF002859
:100D500003D0BDE81040FFF736BA10BD003801409F
:100D600010040020FEE7704708B500F00BF80448B7
:100D70000021009008238022084600F021F808BDD9
:100D80000000002070B5002404F1B000C0B20021C2
:100D900000F09EF90021084600F09AF90021102089
:100DA00000F096F900250121002000F091F96D1C5A
:100DB000EDB2802DF7D3641CE4B2082CE4D370BDEF
:100DC0002DE9F04798461746824600260C46DDF886
:100DD000209011E02146504600F0ACF8554607E05F
:100DE00019F806000121761C00F072F96D1CEDB2B5
:100DF000BD42F5D3641CE4B24445EBD3BDE8F087B3
:100E000070B5FFF743FBFFF761FF0122484D140265
:100E100021462846FFF726FB642000F0FBFA00225B
:100E200021462846FFF71EFB642000F0F3FA01225A
:100E300021462846FFF716FB0021AE2000F048F9B6
:100E40000021084600F044F90021102000F040F98C
:100E50000021402000F03CF90021812000F038F909
:100E60000021CF2000F034F90021A12000F030F95A
:100E70000021C82000F02CF90021A62000F028F95C
:100E80000021A82000F024F900213F2000F020F9E3
:100E90000021D32000F01CF90021084600F018F9C9
:100EA0000021D52000F014F90021802000F010F975
:100EB0000021D92000F00CF90021F12000F008F900
:100EC0000021DA2000F004F90021122000F000F9DE
:100ED0000021DB2000F0FCF80021402000F0F8F8B1
:100EE0000021202000F0F4F80021022000F0F0F8AA
:100EF00000218D2000F0ECF80021142000F0E8F82B
:100F00000021A42000F0E4F80021A62000F0E0F881
:100F10000021AF2000F0DCF80021AF2000F0D8F86D
:100F2000FFF730FFBDE870400021084600F002B82E
:100F30000008014010B50446B031C8B2002100F0ED
:100F4000C7F8102040EA1410002100F0C1F804F0A6
:100F50000F00BDE8104040F00100002100F0B8B8DB
:100F60002DE9F04115460E460746FFF7E3FF0F480F
:100F7000002400EB85150121285D00F0A9F8641C10
:100F8000E4B2102CF7D3761CF1B23846FFF7D2FF4B
:100F900000242819012190F8200000F099F8641C21
:100FA000E4B2102CF5D3BDE8F08100003E1A000831
:100FB0002DE9F041203A00240D468046D7B27F2823
:100FC00003D900208D1C8046EDB22946FFF7B2FF01
:100FD0000F4E00BF04EB07100121305C00F078F8E1
:100FE000641CE4B2082CF5D36D1CE9B24046FFF74F
:100FF000A1FF002404EB071030440121007A00F027
:1010000067F8641CE4B2082CF4D3BDE8F08100005A
:101010004E1400082DE9F04117460E4604460025FF
:101020000CE031462046FFF7C3FF0834E4B2782CC9
:1010300002D90024B61CF6B26D1CEDB27A5D002A0E
:10104000EFD1BDE8F081000010B5FFF79BFE19A2BB
:1010500000210A20FFF7DEFF002203211B20FFF7FB
:101060007FFF4FF4FA742046FFF7FAF801220321BC
:101070002A20FFF775FF2046FFF7F2F8022203212E
:101080003920FFF76DFF2046FFF7EAF803221146EB
:101090004820FFF765FF2046FFF7E2F8042203210E
:1010A0005720FFF75DFF0621BDE8104005A21E2076
:1010B000FFF7B0BF7869616F74616E6773747564B0
:1010C000696F0000323032302D362D323100000091
:1010D0002DE9F0471E4D06464FF4804A09B1012222
:1010E00000E0002251462846FFF7BCF94FF4805833
:1010F000002241462846FFF7B5F900244FF4004985
:101100004FF40057002239462846FFF7ABF9300666
:1011100001D5012200E0002249462846FFF7A2F946
:10112000012239462846FFF79DF97006641C060E19
:10113000E4B2082CE6D3012241462846FFF792F993
:1011400051462846BDE8F0470122FFF78BB9000061
:10115000000C014070477047FFF790B910B590B090
:1011600028216846FEF7E5FF14210AA8FEF7E1FFF3
:101170000220009001200490102000240590079484
:101180006846FFF7FFFA0F20CDE90A040C940D948E
:1011900000210AA80E94FFF709FA10B010BD000054
:1011A0000D48016841F00101016041680B4A11409E
:1011B000416001680A4A11400160016821F4802100
:1011C0000160416821F4FE0141604FF41F0181601C
:1011D0000449C00308607047001002400000FFF897
:1011E000FFFFF6FE08ED00E010B5406A0021C18562
:1011F000C184FFF76BFC10BD0168CA6822F49072CD
:10120000CA6001684A6922F001024A61202180F81F
:101210003A10704710B590F83A10222901D00220F8
:1012200010BD8168B1F5805F11D0016900290168A6
:101230001FD0496801F07F03816A4A1C82620B70EB
:10124000C18D491E0904090CC18518D02BE0026923
:10125000816A002A0268526805D0D2B20A80816A87
:10126000491C8162ECE7C2F308020A80816A891C8A
:10127000F7E74A68816A4B1C83620A70E0E70168FD
:10128000CA6822F02002CA600168CA6822F480722B
:10129000CA6001684A6922F001024A61202180F88F
:1012A0003A10FFF70FFD002010BD00002DE9F041BE
:1012B000044600680169E26821F44051114301616C
:1012C0002169A0680843616908432168CA6841F23E
:1012D0000C639A430243CA6020684169A26921F401
:1012E0004071114341611E492068642532268842BD
:1012F00002D1FFF701FA01E0FFF7EEF900EBC001C0
:1013000001EB001160686FF018078000B1FBF0F28C
:10131000B2FBF5F2B1FBF0F37A4303EB8202B1FBCF
:10132000F0F306EB0212B2FBF5F2B3FBF5F302F0B9
:10133000F00202EB0312B1FBF0F3B1FBF0F0B0FBF3
:10134000F5F0784303EB800006EB0010B0FBF5F0FE
:10135000216800F00F0010448860BDE8F0810000B3
:101360000038014090F83910212901D0022070473F
:101370008168B1F5805F016A0BD04A1C0262026885
:1013800009785160C18C491E0904090CC1840ED032
:1013900017E009880268C1F308015160016900295A
:1013A000016A02D0491C0162ECE7891CFBE7016875
:1013B000CA6822F08002CA600068C16841F040013A
:1013C000C1600020704700000148FFF781BB0000AA
:1013D00010040020FEE70907090E002804DB00F1D5
:1013E000E02080F80014704700F00F0000F1E020CA
:1013F00080F8141D704702E008C8121F08C1002AB7
:10140000FAD170477047002001E001C1121F002A85
:10141000FBD1704740F2067303E01946491EFDD226
:10142000401E0028F9D17047FFF730F8FFF796FE0D
:10143000FFF74CFCFFF77AFCFFF7E2FCFFF794FCA8
:101440004FF4FA70FEF70CFFFFF7FEFDFEE7000019
:10145000000000000000000000000000000000008C
:1014600000F8000000000000003330000000001011
:101470000C06100C0600000000000000000040C038
:101480007840C0784000043F04043F04040000702A
:1014900088FC08300000001820FF211E0000F00822
:1014A000F000E018000000211C031E211E0000F0C7
:1014B0000888700000001E2123241927211010160F
:1014C0000E0000000000000000000000000000000E
:1014D00000E018040200000000071820400000028D
:1014E0000418E00000000040201807000000404001
:1014F00080F0804040000202010F01020200000063
:1015000000F0000000000101011F010101000000C6
:1015100000000000000080B070000000000000002B
:1015200000000000000000010101010101010000B4
:10153000000000000000003030000000000000004B
:10154000000080601804006018060100000000E040
:1015500010080810E000000F102020100F000010ED
:1015600010F8000000000020203F20200000007044
:10157000080808887000003028242221300000303C
:101580000888884830000018202020110E00000034
:10159000C02010F8000000070424243F240000F8B5
:1015A0000888880808000019212020110E0000E09A
:1015B000108888180000000F112020110E0000383C
:1015C0000808C83808000000003F00000000007054
:1015D000880808887000001C222121221C0000E0DD
:1015E00010080810E0000000312222110F00000056
:1015F00000C0C0000000000000303000000000000B
:10160000008000000000000080600000000000007A
:101610008040201008000001020408102000404013
:101620004040404040000404040404040400000856
:10163000102040800000002010080402010000700B
:1016400048080808F0000000003036010000C030F3
:10165000C828E810E0000718272423140B00000016
:10166000C038E0000000203C23020227382008F8A0
:10167000888888700000203F202020110E00C03094
:10168000080808083800071820202010080008F86B
:1016900008080810E000203F202020100F0008F864
:1016A0008888E8081000203F20202320180008F830
:1016B0008888E8081000203F200003000000C030A8
:1016C00008080838000007182020221E020008F829
:1016D00008000008F808203F210101213F200008F0
:1016E00008F8080800000020203F2020000000002B
:1016F0000808F8080800C08080807F00000008F813
:1017000088C028180800203F20012638200008F84B
:10171000080000000000203F20202020300008F8B2
:10172000F800F8F80800203F003F003F200008F8CC
:1017300030C00008F808203F200007183F00E010E4
:1017400008080810E0000F10202020100F0008F8F3
:1017500008080808F000203F210101010000E01006
:1017600008080810E0000F18242438504F0008F82B
:10177000888888887000203F2000030C302000708B
:101780008808080838000038202121221C00180889
:1017900008F8080818000000203F2000000008F8A2
:1017A00008000008F808001F202020201F000878EB
:1017B000880000C83808000007380E010000F8084B
:1017C00000F80008F800033C0700073C0300081875
:1017D00068808068180820302C03032C30200838DB
:1017E000C800C83808000000203F20000000100892
:1017F0000808C838080020382621202018000000DA
:1018000000FE020202000000007F40404000000C89
:1018100030C000000000000000010638C0000002D7
:101820000202FE000000004040407F000000000077
:10183000040202020400000000000000000000009A
:101840000000000000008080808080808080000296
:101850000204000000000000000000000000000082
:101860008080808000000019242222223F2008F876
:10187000008080000000003F112020110E000000B9
:10188000008080800000000E112020201100000048
:1018900000808088F800000E112020103F200000FA
:1018A000808080800000001F2222222213000080FE
:1018B00080F0888888180020203F20200000000049
:1018C000808080808000006B94949493600008F87E
:1018D000008080800000203F210000203F20008009
:1018E0009898000000000020203F20200000000009
:1018F00000809898000000C08080807F000008F879
:10190000000080808000203F24022D30200000084D
:1019100008F8000000000020203F20200000808008
:10192000808080808000203F20003F20003F80801A
:10193000008080800000203F210000203F20000028
:10194000808080800000001F202020201F008080D9
:1019500000808000000080FFA12020110E00000008
:10196000008080808000000E112020A0FF808080F9
:1019700080008080800020203F21200001000000A6
:10198000808080808000003324242424190000807B
:1019900080E0808000000000001F20200000808088
:1019A000000000808000001F202020103F20808049
:1019B00080000080808000010E30080601008080D9
:1019C0000080008080800F300C030C300F000080FE
:1019D0008000808080000020312E0E312000808029
:1019E00080000080808080818E7018060100008059
:1019F0008080808080000021302C22213000000077
:101A00000000807C020200000000003F4040000017
:101A10000000FF00000000000000FF0000000002C6
:101A2000027C800000000040403F000000000006F3
:101A30000101020204040000000000000000808098
:101A4000EE888888E88F088878484E40C0000000FB
:101A50000000000000000000000000000000000086
:101A60007F2424247F008140300F3041800000001B
:101A70000000000000000000000000000000000066
:101A800000000001E21CE000000000000000000077
:101A90000000000000000000000000000000804086
:101AA00020100C03000000030C3040808000000078
:101AB0000000000000000000000000000000101006
:101AC00090909090901010FF1010111610000000D0
:101AD00000000000000000000000000000000020E6
:101AE00060203F10101000030C102040F800000090
:101AF00000000000000000000000000000008082E4
:101B00008282FE8282828282FE8282828000000045
:101B10000000000000000000000000000000008045
:101B200040300F0000000000FF0000000000000037
:101B300000000000000000000000000000000000A5
:101B4000181610D0B8979090909294100000000052
:101B50000000000000000000000000000000002065
:101B6000108C838041462810284443808000000068
:101B7000000000000000000000000000000000FE67
:101B80000222428272022242827202FE00000000A1
:101B9000000000000000000000000000000000FF46
:101BA000100806010E100806014E807F000000009C
:101BB0000000000000000000000000000000000025
:101BC00000000000000001020304060708090000ED
:101BD0000000010203040000F81B000800000020C0
:101BE000100400006C0100081C1D000810040020F7
:101BF000400400000614000811100A03050911FF33
:101C0000118905C312E012F072F8073D4428FF1154
:101C1000AA44700B8301384482929274018328088D
:101C20007C44FF017D7D7D044905647D01FF9A01AF
:101C300002818A010B013669419949FA0101011DAE
:101C400038083F3F0303F31311011E01F1116181B5
:101C5000312D816111F1393B4141072C01C1211E18
:101C6000AB21C114390139360738D33303033F3F61
:101C700023E0E06A7FA81A7FBF4C0618060A2136C7
:101C800040407F40401C1F204001AB201F14113AF0
:101C9000600E6C300C034601361C070706017809FC
:101CA0000404048444444484071C0484C405790E59
:101CB00009110A7911294003410707261018141247
:101CC000112E0F1010100F0F331F102608101212B4
:101CD0000D22186B0D120A5929590701605A80010B
:101CE000013D20087F030C300C037F2538545458E5
:101CF000257C04047805223C40407C17FFAAAAAA50
:101D000028080A2CFF681E26494949321016020489
:0C1D100008107F320182101324F4000040
:04000005080000ED02
:00000001FF
