:020000040800F2
:1000000050050020010100083F0A0008D909000836
:100010003D0A0008C3010008250F00080000000089
:10002000000000000000000000000000930E000827
:10003000C501000800000000910E0008950E0008A0
:100040001B0100081B0100081B0100081B01000820
:100050001B0100081B0100081B0100081B01000810
:100060001B0100081B0100081B0100081B01000800
:100070001B0100081B0100081B0100081B010008F0
:100080001B0100081B0100081B0100081B010008E0
:100090001B0100081B0100081B0100081B010008D0
:1000A0001B0100081B0100081B0100081B010008C0
:1000B0001B0100081B0100081B0100081B010008B0
:1000C0001B0100081B0100081B0100081B010008A0
:1000D0001B0100081B0100081B0100081B01000890
:1000E0001B0100081B0100081B010008DFF80CD0F1
:1000F00000F02AF800480047650F0008500500206E
:100100000648804706480047FEE7FEE7FEE7FEE7B1
:10011000FEE7FEE7FEE7FEE7FEE7FEE7DD0E00088E
:10012000ED000008D2B201E000F8012B491EFBD21D
:1001300070470022F6E710B513460A4604461946F2
:10014000FFF7F0FF204610BD064C074D06E0E068C3
:1001500040F0010394E8070098471034AC42F6D30E
:10016000FFF7C8FF88190008A819000870B58C1897
:1001700010F8015B15F0070301D110F8013B2A11BB
:1001800006D110F8012B03E010F8016B01F8016BA8
:100190005B1EF9D12B0705D40023521E0DD401F8A4
:1001A000013BFAE710F8013BCB1A921C03E013F86D
:1001B000015B01F8015B521EF9D5A142D8D30020A2
:1001C00070BDFEE77047000070B5044600F004F90A
:1001D0000546601C02D004480078044400F0FCF896
:1001E000401BA042FAD370BD400100202DE9F84F1A
:1001F000DFF8B891002409F1040A0AF1040B234640
:100200000F270BF1040EC9E00125A5402A40AA42A0
:100210007DD1674ED1F804C0ACEB0608B44532D0AE
:1002200014DCBCF1030F3AD009DCBCF1000F2AD07A
:10023000BCF1010F1CD0BCF1020F31D11DE0BCF1AB
:10024000110F17D0BCF1120F2AD119E0B8F5881F91
:1002500019D006DCB8F5803F15D0B8F5801F1FD146
:1002600011E0B8F5001F0ED0B8F5041F18D10AE050
:10027000CB6815E0CB681B1D12E0CB6808330FE09C
:10028000CB680C330CE08B682BB1012B4FF00803CB
:1002900003D0456104E0042302E0056100E000238F
:1002A000FF2A01D8064601E000F104064FEA840562
:1002B00001D9A5F12005D6F8008007FA05FC28EA47
:1002C0000C0803FA05F548EA0508C6F800804D68F1
:1002D000ED0062D5374DAE6946F00106AE61AD69FD
:1002E00024F0030605F001050095334D06EB050CDF
:1002F000DCF80850A607360F07FA06F825EA0805C5
:10030000DFF8B880404503D14FF0000817E044E023
:10031000DFF8AC80404502D14FF001080FE0DFF874
:10032000A480404502D14FF0020808E0DFF8988031
:10033000404502D14FF0030801E04FF0040808FAED
:1003400006F848EA0508CCF808804D68D9F800603E
:10035000ED034D4601D5164300E096432E604D68EF
:10036000DAF80060AD03554601D5164300E0964328
:100370002E604D68DBF80060ED025D4601D5164346
:1003800000E096432E604D68DEF80060AD027546D1
:1003900001D5164300E096432E60641C0D682A4682
:1003A000E5407FF431AFBDE8F88F00000004014064
:1003B0000000111000100240000001400008014040
:1003C000000C014000100140001401400AB101611D
:1003D00070470904FBE7000001488068704700008F
:1003E0004001002002488168027811448160704712
:1003F00040010020074810B5016841F0100101607C
:10040000032000F067F8002000F006F800F024F860
:10041000002010BD0020024070B50D4D04464FF481
:100420007A712878B1FBF0F00A490968B1FBF0F065
:1004300000F0BEFA48B9102C07D200222146501E07
:1004400000F028F800206C6070BD012070BD000035
:10045000400100204C0100200C4808B5816941F0A2
:1004600001018161816901F001010091C16941F0DF
:100470008051C161C06900F080500090044841681B
:1004800021F0E06141F00071416008BD00100240C0
:1004900000000140F0B40E4B1B680C46C3F302236E
:1004A000C3F10705042D00D90425191D072901D220
:1004B000002300E0DB1E012606FA05F1491E21405B
:1004C00099409E40761E16403143F0BC00F02BBD93
:1004D0000CED00E0064900F0070208684FF6FF0344
:1004E000184040EA0220034A1043086070470000A9
:1004F0000CED00E00000FA052DE9F0470F4605007D
:1005000061D0434E306800F00700B84209D230682D
:1005100020F0070038433060306800F00700B84230
:1005200051D128683B4C810712D5400703D560683C
:1005300040F4E06060602878000703D5606840F40C
:10054000605060606068A96820F0F0000843606057
:100550002878C00728D06868012810D021680228B0
:1005600010D0890700292EDA616821F003010143C8
:100570006160FFF731FF804641F288390DE0216864
:100580008903EFE78901EDE7FFF726FFA0EB0801FC
:10059000494502D90320BDE8F0876068696800F02A
:1005A0000C00B0EB810FEFD1306800F00700B842CB
:1005B0000BD9306820F0070038433060306800F015
:1005C0000700B84201D00120E5E72878400705D5AB
:1005D0006068E96820F4E0600843606028780007FC
:1005E00006D56068296920F4605040EAC100606067
:1005F00000F018F86168084AC1F30311515CC84063
:100600000649086006480068FFF706FF0020C2E7B9
:100610000020024000100240761900084C01002022
:100620004401002012A185B00FC98DE80F0014A06D
:10063000144A006804905168134801F00C03042B1D
:1006400010D0082B0ED1C1F38343C9031DF803005A
:100650000AD5516804AAC1F34041515C0A4A50438B
:10066000B0FBF1F005B0704708494843FAE70000D5
:1006700002030405060708090A0B0C0D0E0F1010E3
:10068000010200000010024000127A0000093D0043
:100690002DE9F84F040070D02078C04DC00749D034
:1006A0006868C0F38100012807D06868C0F3810042
:1006B000022809D16868C00306D52868800339D5A7
:1006C00060680028E7D035E06068B0F5803F0BD067
:1006D00010B1B0F5A02F11D0286820F48030286028
:1006E000286820F4802002E0286840F480302860E8
:1006F000606890B1FFF770FE06460AE0286840F493
:1007000080202860F0E700BFFFF766FE801B6428AA
:1007100073D828688003F7D50CE0FFF75DFE064626
:1007200005E000BFFFF758FE801B6428F0D828685A
:100730008003F7D420789A4E80074FF001094FF0DC
:10074000000839D5686810F00C0F07D06868C0F34E
:100750008100022809D16868C00306D42868800790
:1007600014D52069012808D110E02069B0B1C6F87D
:100770000090FFF731FE074605E00AE1FFF72CFE87
:10078000C01B0228C4D828688007F7D5286861698B
:1007900020F0F80040EAC10028600DE0C6F80080B3
:1007A000FFF71AFE074604E0FFF716FEC01B0228FB
:1007B00023D828688007F7D4207800072CD57948FB
:1007C000A169D9B1C0F80090FFF706FE074604E022
:1007D000FFF702FEC01B02280FD8686A8007F7D512
:1007E00071484FF4FA510068B0FBF1F0009000BF7F
:1007F0000098411E0091FAD20EE080E0C0F800801F
:10080000FFF7EAFD074604E0FFF7E6FDC01B0228FC
:1008100075D8686A8007F7D42078400760D5E86902
:100820000027C00008D4E86940F08050E861E8691A
:10083000012700F0805000905C480168C90513D47E
:100840000168834641F480710160FFF7C5FD82466F
:1008500006E000BFFFF7C0FDA0EB0A0064284ED8F9
:10086000DBF80000C005F5D5E06801280AD008B122
:10087000052813D0286A20F001002862286A20F099
:10088000040002E0286A40F001002862E06841F2BA
:10089000883B98B1FFF7A0FD82460BE0286A40F044
:1008A00004002862EEE700BFFFF796FDA0EB0A0107
:1008B00059455AD8286A8007F6D50CE0FFF78CFD19
:1008C000824605E0FFF788FDA0EB0A0159454CD8A8
:1008D000286A8007F6D41FB1E86920F08050E861EB
:1008E000E06988B36968C1F38101022944D0022814
:1008F000C6F8608004D0FFF76FFD044638E034E0AE
:10090000FFF76AFD074604E0FFF766FDC01B0228FB
:100910002BD828688001F7D4206AB0F5803F05D134
:100920006868A16820F4003008436860D4E90801D1
:100930000843696821F4741108436860C6F8609040
:10094000FFF74AFD044606E025E000BFFFF744FD3F
:10095000001B022809D828688001F7D51BE000BFDA
:10096000FFF73AFD001B022802D90320BDE8F88FEB
:1009700028688001F4D40EE00128F7D06868226A64
:1009800000F48031914204D1616A00F47010884211
:1009900001D00120EAE70020E8E700000010024053
:1009A00000004242800442424C010020007000409E
:1009B00010B5401EB0F1807F01D3012010BD4FF073
:1009C000E02460610F21601700F0ADFA0020A06103
:1009D00007202061002010BDFEE7000070B586B042
:1009E000002414480094019402940394816941F016
:1009F00008018161816901F008010491816941F078
:100A00000401816180690C4E00F004004FF47045D0
:100A10000490002229463046FFF7D8FC01200095BB
:100A2000CDE901040220039069463046FFF7DEFB62
:100A300006B070BD00100240000C0140FEE7704798
:100A400008B500F00BF8044800210090082380222C
:100A5000084600F021F808BD860F000870B5002494
:100A600004F1B000C0B2002100F0D0F90021022052
:100A700000F0CCF90021102000F0C8F90025012178
:100A8000002000F0C3F96D1CEDB2802DF7D3641C7B
:100A9000E4B2082CE4D370BD2DE9F0479846174620
:100AA000824600260C46DDF8209011E02146504693
:100AB00000F0DEF8554607E019F806000121761C23
:100AC00000F0A4F96D1CEDB2BD42F5D3641CE4B294
:100AD0004445EBD3BDE8F0872DE9F047624886B086
:100AE000816941F008018161806901244FF48056D9
:100AF000CDE9006400F0080003250294CDE903501D
:100B0000DFF868A169465046FFF770FBA703CDE9FF
:100B1000007469465046CDE90245FFF767FB4FF484
:100B20000058CDE9008469465046CDE90245FFF7FB
:100B30005DFB4FF40049CDE9009469465046CDE98C
:100B40000245FFF753FB012231465046FFF73EFCBA
:100B5000012239465046FFF739FC012241465046F2
:100B6000FFF734FC012249465046FFF72FFC0021D5
:100B7000AE2000F04BF90021022000F047F90021DF
:100B8000102000F043F90021402000F03FF900213F
:100B9000812000F03BF90021CF2000F037F900213F
:100BA000A12000F033F90021C82000F02FF9002126
:100BB000A62000F02BF90021A82000F027F9002141
:100BC0003F2000F023F90021D32000F01FF900217D
:100BD000084600F01BF90021D52000F017F900218C
:100BE000802000F013F90021D92000F00FF9002136
:100BF000F12000F00BF90021DA2000F007F90021C4
:100C0000122000F003F90021DB2000F0FFF80021A2
:100C1000402000F0FBF80021202000F0F7F8002130
:100C2000022000F0F3F800218D2000F0EFF8002101
:100C3000142000F0EBF80021A42000F0E7F80021D8
:100C4000A62000F0E3F80021AF2000F0DFF800213B
:100C5000AF2000F0DBF8FFF701FF0021084600F0AD
:100C600007F806B0BDE8F08700100240000C014014
:100C700010B50446B031C8B2002100F0C7F810200A
:100C800040EA1410002100F0C1F804F00F00BDE8A4
:100C9000104040F00100002100F0B8B82DE9F0410B
:100CA00015460E460746FFF7E3FF0F48002400EB0A
:100CB00085150121285D00F0A9F8641CE4B2102C10
:100CC000F7D3761CF1B23846FFF7D2FF002428197B
:100CD000012190F8200000F099F8641CE4B2102C77
:100CE000F5D3BDE8F0810000000000202DE9F041BF
:100CF000203A00240D468046D7B27F2803D9002031
:100D00008D1C8046EDB22946FFF7B2FF0F4E00BFA3
:100D100004EB07100121305C00F078F8641CE4B2A9
:100D2000082CF5D36D1CE9B24046FFF7A1FF002463
:100D300004EB071030440121007A00F067F8641CCE
:100D4000E4B2082CF4D3BDE8F0810000861300085B
:100D50002DE9F04117460E46044600250CE03146C9
:100D60002046FFF7C3FF0834E4B2782C02D90024F0
:100D7000B61CF6B26D1CEDB27A5D002AEFD1BDE86B
:100D8000F081000010B5FFF769FE19A200210A20CA
:100D9000FFF7DEFF002203211B20FFF77FFF4FF448
:100DA000FA742046FFF710FA012203212A20FFF7E8
:100DB00075FF2046FFF708FA022203213920FFF7CA
:100DC0006DFF2046FFF700FA032211464820FFF787
:100DD00065FF2046FFF7F8F9042203215720FFF7AB
:100DE0005DFF0621BDE8104005A21E20FFF7B0BF41
:100DF0007869616F74616E6773747564696F000000
:100E0000323032302D362D32310000002DE9F047DE
:100E10001E4D06464FF4804A09B1012200E000222F
:100E200051462846FFF7D2FA4FF480580022414637
:100E30002846FFF7CBFA00244FF400494FF400573F
:100E4000002239462846FFF7C1FA300601D50122B3
:100E500000E0002249462846FFF7B8FA0122394649
:100E60002846FFF7B3FA7006641C060EE4B2082C9D
:100E7000E6D3012241462846FFF7A8FA5146284604
:100E8000BDE8F0470122FFF7A1BA0000000C0140C5
:100E900070477047FFF7A6BA10B590B02821684692
:100EA000FFF747F914210AA8FFF743F90220009041
:100EB0000120049010200024059007946846FFF755
:100EC000E7FB0F20CDE90A040C940D9400210AA839
:100ED0000E94FFF711FB10B010BD00000D48016823
:100EE00041F00101016041680B4A11404160016815
:100EF0000A4A11400160016821F4802101604168C3
:100F000021F4FE0141604FF41F0181600449C003D8
:100F100008607047001002400000FFF8FFFFF6FE77
:100F200008ED00E0FEE70907090E002804DB00F1E8
:100F3000E02080F80014704700F00F0000F1E0207E
:100F400080F8141D704702E008C8121F08C1002A6B
:100F5000FAD170477047002001E001C1121F002A3A
:100F6000FBD17047FFF746FAFFF796FFFFF736FD14
:100F7000FFF7B2FDFFF764FD4FF4FA70FFF724F9B5
:100F8000FFF700FFFEE70000000000000000000087
:100F900000000000000000000000C0603010303091
:100FA00070E0C0000000000080C0404040C0C000B1
:100FB0000000000000000000000000000000000031
:100FC0000000000000000000000000000000000021
:100FD0000000000000000000000000000000000011
:100FE0000000000000000000000000000000000001
:100FF00000000000000000000000000000000000F1
:1010000000000000000000000000000000000000E0
:10101000000000000000000000071F3830363E1CB2
:1010200000003FFEC0F03C0F03E03030A0C0F33FB3
:1010300000000000000000000000000000000000B0
:1010400000000000000000000000000000000000A0
:101050000000000000000000000000000000000090
:101060000000000000000000000000000000000080
:101070000000000000000000000000000000000070
:101080000000000000000000000000000000000060
:10109000F0F81808089898F0F060C0C0E0F0D0F0C0
:1010A000F0E0FFFFE7E0C0000003020303010000DF
:1010B0000000000000000000000000000000000030
:1010C0000000000000000000000000000000000020
:1010D0000000000000000000000000000000000010
:1010E0000000000000000000000000000000000000
:1010F00000000000000000000000000000000000F0
:101100000000000000000000000000000000C0E03F
:101110006133161C9CDB9BDF97DF99F1FFEFA7E1A2
:1011200061E1FBFF8FCF6DC4E4E4CC6C0C08089840
:10113000F870000000000000000000000000000047
:10114000000000000000000000000000000000009F
:10115000000000000000000000000000000000008F
:10116000000000000000000000000000000000007F
:10117000000000000000000000000000000000006F
:1011800000000000000000000000000000070F1831
:10119000181818181B0D0F0507FFFF0F0D8DCD7DBB
:1011A0003D1F3FECCFB33B6E763EFEF6061A1B1B8F
:1011B0001918F8F800F8F8F8989898989898F8F8A6
:1011C000000000F8F8F8D8D8D8D8D8D8D8D8D8D8C7
:1011D000D8D8D8D8F8F8F80000FCFC1C1C9CDCFC23
:1011E000FCFCDCDCDCDCDCDCDC1CFCFC000060602F
:1011F00060606060606060FCFCFC6060606060601B
:1012000060606000000000000000000000000000BE
:1012100000000000006060E0E0F9FFBF170100007F
:10122000000000000103030606070300007E7F6F35
:1012300063E3E7E7F8FBFB9B9999FFFF99999BFB19
:10124000F80000FFFFFF011919191919FFFF39797B
:10125000F9D91901FFFFFF0000FFFF7277373B7BD1
:101260007FFEFCDEDEDF7B393030FFFF000000D880
:10127000D8D8D8D8D81878FFFF9F18181818D8D8F9
:1012800098000000000000000000000000000000C6
:101290000080C0D0F8FF7F7F3F31190800000000B8
:1012A00000000000000000000000000000707060FE
:1012B000707F3F3F7373333131313F3F31313D3FB9
:1012C0007D70007F7F7F33333333333333333333B6
:1012D000333333337F7F7F00007F7F3030333333CE
:1012E00037373636363E3E3E3030FF7F00001E1F19
:1012F00007001F3F7F707071737371707E3E06032D
:101300000F0F0C00000000000000000000040607A2
:101310000301313C0F03000000000000000000004A
:1013200000000000000000000000000000000000BD
:1013300000000000000000000000000000000000AD
:10134000000000000000000000000000000000009D
:10135000000000000000000000000000000000008D
:10136000000000000000000000000000000000007D
:10137000000000000000000000000000000000006D
:10138000000000000000000000000000000000005D
:10139000000000000000000000F800000000000055
:1013A00000333000000000100C06100C0600000096
:1013B00000000000000040C07840C0784000043FBA
:1013C00004043F040400007088FC0830000000188A
:1013D00020FF211E0000F008F000E01800000021AE
:1013E0001C031E211E0000F00888700000001E2152
:1013F00023241927211010160E0000000000000001
:10140000000000000000000000E0180402000000DE
:1014100000071820400000020418E000000000400F
:10142000201807000000404080F080404000020289
:10143000010F01020200000000F0000000000101A5
:10144000011F01010100000000000000000080B049
:10145000700000000000000000000000000000011B
:101460000101010101010000000000000000003046
:1014700030000000000000000000806018040060E0
:1014800018060100000000E010080810E000000F3E
:10149000102020100F00001010F8000000000020A5
:1014A000203F2020000000700808088870000030ED
:1014B0002824222130000030088888483000001895
:1014C000202020110E000000C02010F800000007AE
:1014D0000424243F240000F8088888080800001924
:1014E000212020110E0000E0108888180000000F55
:1014F000112020110E0000380808C838080000002C
:10150000003F000000000070880808887000001C80
:10151000222121221C0000E010080810E000000039
:10152000312222110F00000000C0C00000000000A6
:1015300000303000000000000080000000000000CB
:1015400080600000000000008040201008000001C2
:101550000204081020004040404040404000040485
:10156000040404040400000810204080000000204F
:10157000100804020100007048080808F00000008C
:10158000003036010000C030C828E810E00007181D
:10159000272423140B000000C038E0000000203C8A
:1015A00023020227382008F8888888700000203F2E
:1015B000202020110E00C030080808083800071845
:1015C00020202010080008F808080810E000203F3C
:1015D000202020100F0008F88888E8081000203F1D
:1015E00020202320180008F88888E8081000203FF1
:1015F000200003000000C030080808380000071869
:101600002020221E020008F808000008F808203FE9
:10161000210101213F20000808F8080800000020EF
:10162000203F2020000000000808F8080800C080C3
:1016300080807F00000008F888C028180800203F3C
:1016400020012638200008F8080000000000203F94
:1016500020202020300008F8F800F8F80800203F8B
:10166000003F003F200008F830C00008F808203F85
:10167000200007183F00E01008080810E0000F10D5
:10168000202020100F0008F808080808F000203F6C
:10169000210101010000E01008080810E0000F1807
:1016A000242438504F0008F8888888887000203F2C
:1016B0002000030C3020007088080808380000382B
:1016C000202121221C00180808F808081800000032
:1016D000203F2000000008F808000008F808001F5C
:1016E000202020201F000878880000C8380800004B
:1016F00007380E010000F80800F80008F800033C65
:101700000700073C0300081868808068180820302C
:101710002C03032C30200838C800C838080000000B
:10172000203F2000000010080808C83808002038B2
:10173000262120201800000000FE02020200000006
:10174000007F40404000000C30C00000000000005E
:1017500000010638C00000020202FE000000004046
:1017600040407F000000000004020202040000006C
:101770000000000000000000000000000000808069
:101780008080808080800002020400000000000051
:101790000000000000000000808080800000001930
:1017A000242222223F2008F8008080000000003F11
:1017B000112020110E000000008080800000000E2B
:1017C000112020201100000000808088F800000E09
:1017D000112020103F200000808080800000001F2A
:1017E000222222221300008080F08888881800209E
:1017F000203F202000000000808080808000006B5F
:1018000094949493600008F8008080800000203F4A
:10181000210000203F200080989800000000002058
:10182000203F20200000000000809898000000C0A9
:101830008080807F000008F8000080808000203FCA
:1018400024022D302000000808F8000000000020CD
:10185000203F202000008080808080808000203F0A
:1018600020003F20003F8080008080800000203FDB
:10187000210000203F200000808080800000001FA9
:10188000202020201F00808000808000000080FF3A
:10189000A12020110E000000008080808000000E3A
:1018A000112020A0FF808080800080808000202088
:1018B0003F212000010000008080808080000033F4
:1018C000242424241900008080E08080000000008F
:1018D000001F202000008080000000808000001F8A
:1018E000202020103F208080800000808080000128
:1018F0000E300806010080800080008080800F305C
:101900000C030C300F0000808000808080000020DD
:10191000312E0E3120008080800000808080808108
:101920008E70180601000080808080808000002179
:10193000302C2221300000000000807C02020000D8
:101940000000003F404000000000FF0000000000D9
:101950000000FF0000000002027C80000000004048
:10196000403F0000000000060101020204040000E4
:101970000000000000000000000000000000010264
:101980000304060708090000A81900080000002049
:10199000500100006C0100082C1A000850010020C2
:1019A00000040000560F00083132E032FF0412201C
:1019B0004080240804035440807F0313010E18085C
:1019C000FC4454545455FE050411F444441440306E
:1019D0000F1EFD45454547040214FD3A04014AFC2B
:1019E0000701124A20015A3F0801121D8060F807C2
:1019F000651BF88801031108084A01DC112BFF0858
:101A00000101121809100C2424A4642526060D10C7
:101A10002424140CC01C404849011A7F040D124BA9
:0C1A2000484040601182101324F40000C4
:04000005080000ED02
:00000001FF
